:020000040800F2
:100000005007002091010008B3120008B50F000846
:10001000B1120008CB040008AD1400080000000075
:10002000000000000000000000000000B7120008FF
:10003000CD04000800000000B5120008B912000845
:10004000AB010008AB010008AB010008AB010008E0
:10005000AB010008AB010008AB010008AB010008D0
:10006000AB010008AB010008AB010008AB010008C0
:10007000AB010008AB010008AB010008AB010008B0
:10008000AB010008AB010008AB010008AB010008A0
:10009000AB010008AB010008AB010008AB01000890
:1000A000AB010008AB010008AB010008AB01000880
:1000B000AB010008AB010008AB010008AB01000870
:1000C000AB010008AB010008AB010008AB01000860
:1000D000AB010008AB010008AB010008AB01000850
:1000E000AB010008AB010008AB01000800F002F80A
:1000F00000F03FF80AA090E8000C82448344AAF183
:100100000107DA4501D100F034F8AFF2090EBAE880
:100110000F0013F0010F18BFFB1A43F0010318473B
:100120002815000048150000103A24BF78C878C18F
:10013000FAD8520724BF30C830C144BF04680C60ED
:10014000704700000023002400250026103A28BF35
:1001500078C1FBD8520728BF30C148BF0B60704739
:10016000642900F07D80002070471FB51FBD10B5C9
:1001700010BD00F070F91146FFF7F7FF01F004FA27
:1001800000F08EF903B4FFF7F2FF03BC00F096F91C
:100190000948804709480047FEE7FEE7FEE7FEE71B
:1001A000FEE7FEE7FEE7FEE7FEE7FEE70448054957
:1001B000054A064B704700000D130008ED000008CB
:1001C0005001002050070020500300205003002061
:1001D0000FB41CB5074B06AA7B44694600900598EE
:1001E00000F021F90020694600F030F91CBC5DF8F0
:1001F00014FB0000710200002DE9F0410E46044698
:10020000002020622046E168884730B3252805D0C9
:10021000D4E901219047206A401CF2E7E1682046BA
:1002200000278847050018D0A5F14100192802D8F9
:1002300020354FF400673246294620462760FFF7F5
:100240008FFF40B1012804D0F61D26F007060836BE
:10025000D8E7361DD6E72846DAE7206ABDE8F08100
:100260002DE9F0410646002410687529314616A58F
:1002700010D0AFF30080002802DA404213A507E057
:1002800031688A0701D512A502E0490704D511A5F6
:10029000012401E0AFF3008000210A2206F12407C7
:1002A00009E0B0FBF2FCB0FBF2F302FB1C003030C3
:1002B00078541846491C0028F3D123462A46304674
:1002C000BDE8F04100F051B8000000002D00000032
:1002D0002B0000002000000010B5431C02E010F8C5
:1002E000011B71B18107FAD14FF0013202C88C1A9B
:1002F0008C4314EAC211F9D0C01A0A0603D0C01EFA
:1003000010BDC01A10BD0A0401D0801E10BD090224
:10031000FCD0401E10BD4FF0000200B513469446BD
:100320009646203922BFA0E80C50A0E80C50B1F14D
:100330002001BFF4F7AF090728BFA0E80C5048BF61
:100340000CC05DF804EB890028BF40F8042B08BFFF
:10035000704748BF20F8022B11F0804F18BF00F8FB
:10036000012B70477047704770472DE9F0470D46E5
:1003700099469246044600F124080168880604D58F
:10038000E06921F01001216000E00120A84201DDB8
:10039000471B00E00027A1697A1902EB0900081A3F
:1003A000A0612078C00602D42046AFF3008000266A
:1003B00008E0D4E901211AF806009047206A401CA1
:1003C000761C20624E45F4DB2078C0060AD5204614
:1003D000AFF3008006E0D4E9012130209047206A85
:1003E000401C2062381EA7F10107F4DC07E0D4E9C5
:1003F000012118F805009047206A401C2062281E41
:10040000A5F10105F3DC2046AFF30080207800065B
:1004100002D50220BDE8F0870120FBE701694A1CF4
:1004200002610878704700B58FB0CDE90131002135
:10043000059105497944CDE9031011466846FFF757
:10044000DBFE0FB000BD0000E5FFFFFF0A6802F809
:10045000010B0A607047754600F02CF8AE460500A7
:100460006946534620F00700854618B020B5FFF7CF
:100470009DFEBDE820404FF000064FF000074FF012
:1004800000084FF0000B21F00701AC46ACE8C009B2
:10049000ACE8C009ACE8C009ACE8C0098D467047BB
:1004A00010B50446AFF300802046BDE81040FFF7CA
:1004B00069BE000000487047EC0000200149182088
:1004C000ABBEFEE7260002007047FEE77047000063
:1004D00070B5044600F008F90546601C02D00448D7
:1004E0000078044400F000F9401BA042FAD370BD2C
:1004F0004C0000202DE9F84FDFF8B8910024A9F155
:10050000040B23460F2709F1040AABF1040EC9E0DE
:100510000125A5402A40AA427DD1674ED1F804C0EA
:10052000ACEB0608B44532D014DCBCF1030F3AD072
:1005300009DCBCF1000F2AD0BCF1010F1CD0BCF1CA
:10054000020F31D11DE0BCF1110F17D0BCF1120F19
:100550002AD119E0B8F5881F19D006DCB8F5803F1C
:1005600015D0B8F5801F1FD111E0B8F5001F0ED0CF
:10057000B8F5041F18D10AE0CB6815E0CB681B1D45
:1005800012E0CB6808330FE0CB680C330CE08B68CB
:100590002BB1012B4FF0080303D0456104E0042385
:1005A00002E0056100E00023FF2A01D8064601E0D1
:1005B00000F104064FEA840501D9A5F12005D6F81B
:1005C000008007FA05FC28EA0C0803FA05F548EA5A
:1005D0000508C6F800804D68ED0062D5374DAE695C
:1005E00046F00106AE61AD6924F0030605F0010591
:1005F0000095334D06EB050CDCF80850A607360FC6
:1006000007FA06F825EA0805DFF8B880404503D167
:100610004FF0000817E044E0DFF8AC80404502D11D
:100620004FF001080FE0DFF8A480404502D14FF001
:10063000020808E0DFF89880404502D14FF0030837
:1006400001E04FF0040808FA06F848EA0508CCF87B
:1006500008804D68D9F80060ED024D4601D516437B
:1006600000E096432E604D68DAF80060AD02554612
:1006700001D5164300E096432E604D68DBF800601C
:10068000AD035D4601D5164300E096432E604D68EC
:10069000DEF80060ED03754601D5164300E0964391
:1006A0002E60641C0D682A46E5407FF431AFBDE83A
:1006B000F88F0000080401400000111000100240F3
:1006C0000000014000080140000C01400010014002
:1006D000001401408068084000D0012070470AB132
:1006E000016170470904FBE701488068704700001A
:1006F0004C000020024881680278114481607047F4
:100700004C000020074810B5016841F0100101605D
:10071000032000F067F80F2000F006F800F024F83E
:10072000002010BD0020024070B50D4D04464FF46E
:100730007A712878B1FBF0F00A490968B1FBF0F052
:1007400000F0CEFA48B9102C07D200222146501EE4
:1007500000F028F800206C6070BD012070BD000022
:100760004C000020580000200C4808B5816941F079
:1007700001018161816901F001010091C16941F0CC
:100780008051C161C06900F0805000900448416808
:1007900021F0E06141F00071416008BD00100240AD
:1007A00000000140F0B40E4B1B680C46C3F302235B
:1007B000C3F10705042D00D90425191D072901D20D
:1007C000002300E0DB1E012606FA05F1491E214048
:1007D00099409E40761E16403143F0BC00F067BE43
:1007E0000CED00E0064900F0070208684FF6FF0331
:1007F000184040EA0220034A104308607047000096
:100800000CED00E00000FA052DE9F0470F46050069
:1008100061D0434E306800F00700B84209D230681A
:1008200020F0070038433060306800F00700B8421D
:1008300051D128683B4C810712D5400703D5606829
:1008400040F4E06060602878000703D5606840F4F9
:10085000605060606068A96820F0F0000843606044
:100860002878C00728D06868012810D0216802289D
:1008700010D0890700292EDA616821F003010143B5
:100880006160FFF731FF804641F288390DE0216851
:100890008903EFE78901EDE7FFF726FFA0EB0801E9
:1008A000494502D90320BDE8F0876068696800F017
:1008B0000C00B0EB810FEFD1306800F00700B842B8
:1008C0000BD9306820F0070038433060306800F002
:1008D0000700B84201D00120E5E72878400705D598
:1008E0006068E96820F4E0600843606028780007E9
:1008F00006D56068296920F4605040EAC100606054
:1009000000F038F86168084AC1F30311515CC8402F
:100910000649086006480068FFF706FF0020C2E7A6
:1009200000200240001002402E160008580000204F
:10093000500000200448054900684968044AC1F392
:100940000221515CC840704758000020001002404E
:100950003E1600080448054900684968044AC1F386
:10096000C221515CC840704758000020001002406E
:100970003E1600080E4A51680E4801F00C03042B85
:1009800011D0082B0FD10C48C1F38343C903C05CBD
:100990000AD55168084AC1F34041921E515C054A8C
:1009A0005043B0FBF1F070470449484370470000E2
:1009B0000010024000127A001E16000800093D00D7
:1009C0002DE9F84F040070D02078C04DC00749D001
:1009D0006868C0F38100012807D06868C0F381000F
:1009E000022809D16868C00306D52868800339D574
:1009F00060680028E7D035E06068B0F5803F0BD034
:100A000010B1B0F5A02F11D0286820F480302860F4
:100A1000286820F4802002E0286840F480302860B4
:100A2000606890B1FFF760FE06460AE0286840F46F
:100A300080202860F0E700BFFFF756FE801B642887
:100A400073D828688003F7D50CE0FFF74DFE064603
:100A500005E000BFFFF748FE801B6428F0D8286837
:100A60008003F7D420789A4E80074FF001094FF0A9
:100A7000000839D5686810F00C0F07D06868C0F31B
:100A80008100022809D16868C00306D4286880075D
:100A900014D52069012808D110E02069B0B1C6F84A
:100AA0000090FFF721FE074605E00AE1FFF71CFE74
:100AB000C01B0228C4D828688007F7D52868616958
:100AC00020F0F80040EAC10028600DE0C6F8008080
:100AD000FFF70AFE074604E0FFF706FEC01B0228E8
:100AE00023D828688007F7D4207800072CD57948C8
:100AF000A169D9B1C0F80090FFF7F6FD074604E000
:100B0000FFF7F2FDC01B02280FD8686A8007F7D5EF
:100B100071484FF4FA510068B0FBF1F0009000BF4B
:100B20000098411E0091FAD20EE080E0C0F80080EB
:100B3000FFF7DAFD074604E0FFF7D6FDC01B0228E9
:100B400075D8686A8007F7D42078400760D5E869CF
:100B50000027C00008D4E86940F08050E861E869E7
:100B6000012700F0805000905C480168C90513D44B
:100B70000168834641F480710160FFF7B5FD82464C
:100B800006E000BFFFF7B0FDA0EB0A0064284ED8D6
:100B9000DBF80000C005F5D5E06801280AD008B1EF
:100BA000052813D0286A20F001002862286A20F066
:100BB000040002E0286A40F001002862E06841F287
:100BC000883B98B1FFF790FD82460BE0286A40F021
:100BD00004002862EEE700BFFFF786FDA0EB0A01E4
:100BE00059455AD8286A8007F6D50CE0FFF77CFDF6
:100BF000824605E0FFF778FDA0EB0A0159454CD885
:100C0000286A8007F6D41FB1E86920F08050E861B7
:100C1000E06988B36968C1F38101022944D00228E0
:100C2000C6F8608004D0FFF75FFD044638E034E08A
:100C3000FFF75AFD074604E0FFF756FDC01B0228E8
:100C40002BD828688001F7D4206AB0F5803F05D101
:100C50006868A16820F4003008436860D4E908019E
:100C60000843696821F4741108436860C6F860900D
:100C7000FFF73AFD044606E025E000BFFFF734FD2C
:100C8000001B022809D828688001F7D51BE000BFA7
:100C9000FFF72AFD001B022802D90320BDE8F88FC8
:100CA00028688001F4D40EE00128F7D06868226A31
:100CB00000F48031914204D1616A00F470108842DE
:100CC00001D00120EAE70020E8E700000010024020
:100CD0000000424280044242580000200070004060
:100CE00010B5401EB0F1807F01D3012010BD4FF040
:100CF000E02460610F21601700F0D9FB0020A061A3
:100D000007202061002010BD70B590F83C20012A1A
:100D100026D0012480F83C40022280F83D20036860
:100D20005A689D6822F070060A6832435A600D4B7B
:100D300002689A4208D0B2F1804F05D00A4B9A421D
:100D400002D00A4B9A4204D1496825F08003194326
:100D5000916080F83D40002180F83C10084670BD4D
:100D6000022070BD002C014000040040000800403B
:100D700010B5040003D094F83D0010B107E0012045
:100D800010BD002084F83C00204600F01FF802202F
:100D900084F83D00211D206800F0BAFA012084F893
:100DA000460084F83E0084F83F0084F8400084F850
:100DB000410084F8420084F8430084F8440084F839
:100DC000450084F83D00002010BD000008B5006813
:100DD0000649884208D10648816941F40061816171
:100DE000806900F40060009008BD0000002C014004
:100DF0000010024070B5044690F83C000025012820
:100E000017D0012684F83C60022084F83D00206859
:100E1000826822F0770222F47F42826008685028BC
:100E200038D00DDC20284FD005DC90B3102811D12C
:100E30004AE0022070BD302846D040280AD13BE06D
:100E400060282FD070280DD0B0F5805F03D0B0F5AA
:100E5000005F12D0012584F83D60002084F83C003A
:100E6000284670BDCB68D1E90121206800F08CFADA
:100E70002068816841F0770109E0CB68D1E9012160
:100E8000206800F081FA2068816841F48041816027
:100E9000E1E719E0CA684968206800F087FA502144
:100EA000206806E0CA684968206800F090FA60216E
:100EB000206800F073FACEE7CA684968206800F03D
:100EC00075FA40212068F4E7226801461046F0E7F1
:100ED00070B5040004D094F84100002510B106E07C
:100EE000012070BD84F84050204600F023F82420F3
:100EF00084F841002068C16821F40051C160204697
:100F000000F078FA2068016921F4904101612068BD
:100F1000416921F02A0141612068C16841F4005112
:100F2000C1606564202084F8410084F84200656354
:100F3000002070BD30B585B0002400940194029467
:100F400003940068174988422AD11748816941F4FF
:100F500080418161816901F480410491816941F09E
:100F6000080181618069114D00F008000490402063
:100F70000090022001900320039069462846FFF765
:100F8000B9FA8020CDE90004694628460294FFF7AB
:100F9000B1FA0748416841F0E06141F00401416065
:100FA00005B030BD0038014000100240000C014087
:100FB00000000140FEE700002DE9F041144E00253D
:100FC00006F1180700F028F8284600F03BF86420E6
:100FD000FFF77EFA5FF0000436F8141057F824008B
:100FE000FFF778FB50B1641CE4B2042CF4D36D1C01
:100FF000EDB2042DE6D30020BDE8F08104480C38A2
:1010000044708570034800EB8500005DF4E7000044
:101010000C0000200C16000870B5094D002405F1E5
:1010200010060A20FFF754FA35F8141056F8240079
:101030000122FFF754FB641CE4B2042CF1D370BD11
:101040000400002010B504460A20FFF741FA0548C5
:1010500030F814101030002250F82400BDE8104081
:10106000FFF73DBB0400002010B500F017F8332057
:1010700000F060FA322000F05DFA282000F05AFA01
:10108000012000F057FA0C2000F054FABDE810409F
:10109000062000F04FBA012000F04CBA2DE9F041D3
:1010A00086B0334800240294816941F004018161D3
:1010B000816901F004010491816941F008018161B5
:1010C000816901F008010491816941F01001816199
:1010D0008069012500F0100004904FF40070CDE904
:1010E0000005DFF890800326694603964046FFF727
:1010F00001FAE802CDE90005CDE90246694640461D
:10110000FFF7F8F9AF0200970396CDE9015469465D
:101110004046FFF7EFF9002239464046FFF7DFFA75
:101120002803CDE90005CDE9024669464046FFF7B0
:10113000E1F9E803CDE90005CDE9024669464046FC
:10114000FFF7D8F90820CDE900050B4FCDE902469D
:1011500069463846FFF7CEF91020CDE90005CDE904
:10116000024669463846FFF7C5F906B0BDE8F0818A
:101170000010024000080140000C014031B1403035
:10118000C0B240F0800000BF00F0D4B940F0800051
:10119000FAE700000EB5024603A16846FFF718F80B
:1011A000684600F003F80EBD2564000070B50546E2
:1011B000002404E0285D00F0D3F9641CE4B2284662
:1011C000FFF78AF8A042F5D870BD000070B586B070
:1011D00000241B480094019402940394816941F017
:1011E00004018161816901F004010491816941F088
:1011F000080181618069134E00F00800049000220C
:101200000E213046FFF76BFA01250320CDE900508F
:1012100069463046FFF76EF90E20CDE90005022041
:10122000CDE9024069463046FFF764F9F020CDE988
:101230000004694630460294FFF75CF906B070BDC1
:10124000001002400008014010B586B00024174885
:10125000009401940294039404941349059401604A
:101260003F21C0E9011440F2E731C0E903144461B1
:101270008461FFF77DFD08B172B6FEE74FF4805040
:10128000009069460948FFF7B5FD08B172B6FEE760
:10129000049404A905480594FFF736FD002801D001
:1012A00072B6FEE706B010BD002C01405C000020C5
:1012B000FEE7FEE770477047FFF71CBA10B590B025
:1012C00028216846FFF727F814210AA8FFF723F81A
:1012D0000220009001200490102000240590079423
:1012E0006846FFF76DFB08B172B6FEE70F20CDE947
:1012F0000A040C940D9400210AA80E94FFF784FAB6
:10130000002801D072B6FEE710B010BD7047000093
:10131000F0B50268194B1A4C1A4D4FF080479842AD
:1013200005D0B84203D0A04201D0A84203D122F098
:1013300070064A683243984205D0B84203D0A042B2
:1013400001D0A84203D122F44074CA6822434C69F8
:1013500022F08002224302608A68C2620A688262C6
:10136000984201D109690163012141610169C907FD
:1013700003D0016921F001010161F0BD002C0140A1
:10138000000400400008004010B5846842EA0322CF
:1013900024F47F440A432243826010BD826822F015
:1013A00070020A4342F007018160704710B5036A7A
:1013B000046A24F001040462846924F0F00444EA1D
:1013C000021423F00A020A438461026210BD10B5C0
:1013D000036A046A24F010040462846923F0A00301
:1013E00024F4704444EA023243EA0111826101624A
:1013F00010BD000070B5044600680169E26821F480
:101400004051114301612169A068084361690843A3
:101410002168CA6841F20C639A430243CA6020689B
:101420004169A26921F44071114341611E4920685C
:10143000884202D1FFF78EFA01E0FFF77BFA00EB5A
:10144000C00101EB0012606864218000B2FBF0F380
:10145000B3FBF1F36FF018067343B2FBF0F5B2FB88
:10146000F0F605EB8305322303EB0515B5FBF1F52B
:10147000B6FBF1F605F0F00505EB0615B2FBF0F64C
:10148000B2FBF0F0B0FBF1F06FF01802504306EB46
:10149000800003EB0010B0FBF1F0216800F00F00BA
:1014A0002844886070BD000000380140FEE709074D
:1014B000090E002804DB00F1E02080F800147047DA
:1014C00000F00F0000F1E02080F8141D70470000CC
:1014D0002DE9F041154D0F468046002405F1080620
:1014E0000EE000BF28FA04F0C00735F8141056F8D3
:1014F000240018D05FF00102FFF7F1F8641CE4B299
:10150000BC42EFD301220A4DD40221462846FFF700
:10151000E6F80120FEF7DCFF21462846BDE8F04151
:101520000022FFF7DCB80022E6E7000034000020CC
:101530000008014010B5044600224FF4007107482E
:10154000FFF7CDF820090421FFF7C2FF04F00F00D8
:10155000BDE810400421FFF7BBBF000000080140B8
:1015600010B50446012251020648FFF7B8F82009D9
:101570000421FFF7ADFF04F00F00BDE81040042187
:10158000FFF7A6BF00080140FFF7BCF8FFF76CFDAE
:10159000FFF781FD00210846FFF7F0FD15A0FFF7DA
:1015A00005FEFFF78BFEFFF711FEFFF74DFE154816
:1015B00013490C2201604FF4E13141600021816048
:1015C000C160C0E904128161C161FFF781FC0E4C6A
:1015D00008B172B6FEE7FFF7EFFC20700028FAD0E2
:1015E00001210020FFF7CAFD20783038FFF7D2FD37
:1015F000F1E700004461206E68616E3A000000006F
:1016000000380140A40000200000002031323341A6
:1016100034353642373839432A3023440102020335
:101620000405060708090A0B0C0D0E0F1010000028
:101630000000000000000102030406070809000082
:1016400000000102030400006816000800000020EA
:101650005C00000028010008C41600085C0000209F
:10166000F406000044010008000000000100020030
:101670000400080010002000400080000008014025
:101680000008014000080140000801400008014036
:1016900000080140000801400008014000100080DF
:1016A000080010000008014000080140000C014043
:1016B000000C0140010000001000000000000000CC
:0416C00000127A009A
:04000005080000ED02
:00000001FF
